:020000040000FA
:1000000068200020650100006D0100006F01000004
:1000100000000000000000000000000000000000E0
:10002000000000000000000000000000710100005E
:1000300000000000000000007301000075010000D6
:1000400077010000790100007B0100007D010000C4
:100050007F01000081010000830100008501000094
:1000600087010000890100008B0100008D01000064
:100070008F01000091010000930100009501000034
:1000800097010000990100009B0100009D01000004
:100090009F010000A1010000A3010000A5010000D4
:1000A000A70100000000000000000000A9010000FE
:1000B000AB010000AD010000AF010000B101000084
:1000C00000F002F800F03EF80CA030C80838241800
:1000D0002D18671EA246AB4654465D46AC4201D180
:1000E00000F030F87E460F3EB6460FCC0126334274
:1000F00000D0FB1A3343A246AB4618472405000044
:1001000044050000103A02D378C878C1FAD85207E3
:1001100001D330C830C101D504680C6070470000BD
:100120000023002400250026103A01D378C1FBD813
:10013000520700D330C100D50B6070471FB51FBDFB
:1001400010B510BD00F04BF81146FFF7F7FF00F0B7
:100150004FF900F063F803B4FFF7F2FF03BC00F0BF
:1001600069F800001648804716480047FEE7FEE79A
:10017000FEE7FEE7FEE7FEE7FEE7FEE7FEE7FEE757
:10018000FEE7FEE7FEE7FEE7FEE7FEE7FEE7FEE747
:10019000FEE7FEE7FEE7FEE7FEE7FEE7FEE7FEE737
:1001A000FEE7FEE7FEE7FEE7FEE7FEE7FEE7FEE727
:1001B000FEE7000004480549054A064B7047000069
:1001C000D1020000C100000068000020682000206B
:1001D000681000206810002070477047704775460F
:1001E00000F024F8AE46050069465346C008C0003A
:1001F000854618B020B5FFF7DDFF60BCB646002687
:100200000027C0C5C0C5C0C5C0C5C0C5C0C5C0C524
:10021000C0C5403D490849008D46704710B50446A9
:10022000C046C0462046FFF796FF10BD0048704705
:100230000800002001491820ABBEFEE7260002009E
:100240007047000081B00020009008480168009AC3
:10025000521C00928907009902D4490A0329F5D358
:1002600000688007C00F01B07047C0460000024020
:10027000411E88418005012189050D4A13688B4381
:10028000181810607047C04681B0002000900848E0
:100290000168009A521C00920902009902D4490A8E
:1002A0000329F5D300680002C00F01B07047C046B3
:1002B0003C800D40054A002903D0116801431160BC
:1002C00070471168814311607047C0461C000240AE
:1002D00010B5234A10201061002010601346083B1F
:1002E0001860111F086050609060D060506190618C
:1002F000D0611062906210681068C0071949084602
:1003000009D1146864070AD413689B059B0F0FD1A9
:100310001748016010BD144814686407F4D51B68C1
:100320001B051B0F5B1C584313689B059B0FEFD0ED
:10033000022B0BD0012B0ED111680906090F491CA5
:1003400000F072F801460A48016010BD0120C103A7
:100350000748016010BD05490548016010BDC04651
:100360000C00024000127A0000093D00409C000091
:100370000000002070B5054600240838782801D90F
:10038000E04370BD0121C806FFF794FF07212E4608
:100390008E430A2E204608DB282E01DA052004E0D1
:1003A000502E01DB084600E00620C10008180E4967
:1003B0000A6802430A600120FFF75AFFFFF764FF53
:1003C00001280ED11F20000269010140FC39074DB0
:1003D0002960FFF737FF012803D141208000A86082
:1003E0003446204670BDC04638800D4004000240AF
:1003F0003C20FFF7BFFF012460052146FFF75AFFAD
:100400000848416821434160C1682143C1600169D6
:1004100021430161816903220A43826101686140CD
:100420000160FBE700800A4043088B421AD3002298
:1004300003098B4279D3030A8B425ED3030B8B42B1
:1004400042D3030C8B4227D30902FF2212BA030CBA
:100450008B4202D31212090203D0030B8B4233D317
:100460001AE0D3E0411A8041401C704703460B4319
:1004700071D443088B42F5D3002203098B4254D335
:10048000030A8B4239D3030B8B421DD3030C8B42DF
:1004900002D394466EE0090AC30B8B4201D3CB030F
:1004A000C01A5241830B8B4201D38B03C01A5241B5
:1004B000430B8B4201D34B03C01A5241030B8B42B7
:1004C00001D30B03C01A5241C30A8B4201D3CB02A2
:1004D000C01A5241830A8B4201D38B02C01A524187
:1004E000430A8B4201D34B02C01A5241030A8B428A
:1004F00001D30B02C01A5241CDD2C3098B4201D3A2
:10050000CB01C01A524183098B4201D38B01C01A1F
:10051000524143098B4201D34B01C01A5241030996
:100520008B4201D30B01C01A5241C3088B4201D345
:10053000CB00C01A524183088B4201D38B00C01AF2
:10054000524143088B4201D34B00C01A5241411A19
:10055000524110007047CA0F00D04942031000D327
:100560004042534000229C4603098B422DD3030A8C
:100570008B4212D38901FC2212BA030A8B420CD39C
:10058000890192118B4208D3890192118B4204D3C5
:10059000890137D0921100E08909C3098B4201D348
:1005A000CB01C01A524183098B4201D38B01C01A7F
:1005B000524143098B4201D34B01C01A52410309F6
:1005C0008B4201D30B01C01A5241C3088B4201D3A5
:1005D000CB00C01A524183088B4201D38B00C01A52
:1005E0005241D9D243088B4201D34B00C01A524129
:1005F000411A00D201465241104663465B1000D3B7
:100600004042704763465B1000D3404201B5002171
:10061000004201D0C9430846C046C04602BD0000A2
:10062000400600000000002004000000040100005B
:1006300044060000080000206020000020010000A7
:0406400000127A002A
:040000050000016591
:00000001FF
